{
  "contractName": "MultiSignatureWallet",
  "abi": [
    {
      "constant": true,
      "inputs": [
        {
          "name": "",
          "type": "uint256"
        }
      ],
      "name": "owners",
      "outputs": [
        {
          "name": "",
          "type": "address"
        }
      ],
      "payable": false,
      "stateMutability": "view",
      "type": "function",
      "signature": "0x025e7c27"
    },
    {
      "constant": true,
      "inputs": [
        {
          "name": "",
          "type": "address"
        }
      ],
      "name": "isOwner",
      "outputs": [
        {
          "name": "",
          "type": "bool"
        }
      ],
      "payable": false,
      "stateMutability": "view",
      "type": "function",
      "signature": "0x2f54bf6e"
    },
    {
      "constant": true,
      "inputs": [
        {
          "name": "",
          "type": "uint256"
        },
        {
          "name": "",
          "type": "address"
        }
      ],
      "name": "confirmations",
      "outputs": [
        {
          "name": "",
          "type": "bool"
        }
      ],
      "payable": false,
      "stateMutability": "view",
      "type": "function",
      "signature": "0x3411c81c"
    },
    {
      "constant": true,
      "inputs": [
        {
          "name": "",
          "type": "uint256"
        }
      ],
      "name": "transactions",
      "outputs": [
        {
          "name": "executed",
          "type": "bool"
        },
        {
          "name": "destination",
          "type": "address"
        },
        {
          "name": "value",
          "type": "uint256"
        },
        {
          "name": "data",
          "type": "bytes"
        }
      ],
      "payable": false,
      "stateMutability": "view",
      "type": "function",
      "signature": "0x9ace38c2"
    },
    {
      "constant": true,
      "inputs": [],
      "name": "transactionCount",
      "outputs": [
        {
          "name": "",
          "type": "uint256"
        }
      ],
      "payable": false,
      "stateMutability": "view",
      "type": "function",
      "signature": "0xb77bf600"
    },
    {
      "constant": true,
      "inputs": [],
      "name": "required",
      "outputs": [
        {
          "name": "",
          "type": "uint256"
        }
      ],
      "payable": false,
      "stateMutability": "view",
      "type": "function",
      "signature": "0xdc8452cd"
    },
    {
      "inputs": [
        {
          "name": "_owners",
          "type": "address[]"
        },
        {
          "name": "_required",
          "type": "uint256"
        }
      ],
      "payable": false,
      "stateMutability": "nonpayable",
      "type": "constructor",
      "signature": "constructor"
    },
    {
      "payable": true,
      "stateMutability": "payable",
      "type": "fallback"
    },
    {
      "anonymous": false,
      "inputs": [
        {
          "indexed": true,
          "name": "sender",
          "type": "address"
        },
        {
          "indexed": false,
          "name": "value",
          "type": "uint256"
        }
      ],
      "name": "Deposit",
      "type": "event",
      "signature": "0xe1fffcc4923d04b559f4d29a8bfc6cda04eb5b0d3c460751c2402c5c5cc9109c"
    },
    {
      "anonymous": false,
      "inputs": [
        {
          "indexed": true,
          "name": "transactionId",
          "type": "uint256"
        }
      ],
      "name": "Submission",
      "type": "event",
      "signature": "0xc0ba8fe4b176c1714197d43b9cc6bcf797a4a7461c5fe8d0ef6e184ae7601e51"
    },
    {
      "anonymous": false,
      "inputs": [
        {
          "indexed": true,
          "name": "sender",
          "type": "address"
        },
        {
          "indexed": true,
          "name": "transactionId",
          "type": "uint256"
        }
      ],
      "name": "Confirmation",
      "type": "event",
      "signature": "0x4a504a94899432a9846e1aa406dceb1bcfd538bb839071d49d1e5e23f5be30ef"
    },
    {
      "anonymous": false,
      "inputs": [
        {
          "indexed": true,
          "name": "transactionId",
          "type": "uint256"
        }
      ],
      "name": "Execution",
      "type": "event",
      "signature": "0x33e13ecb54c3076d8e8bb8c2881800a4d972b792045ffae98fdf46df365fed75"
    },
    {
      "anonymous": false,
      "inputs": [
        {
          "indexed": true,
          "name": "transactionId",
          "type": "uint256"
        }
      ],
      "name": "ExecutionFailure",
      "type": "event",
      "signature": "0x526441bb6c1aba3c9a4a6ca1d6545da9c2333c8c48343ef398eb858d72b79236"
    },
    {
      "constant": false,
      "inputs": [
        {
          "name": "destination",
          "type": "address"
        },
        {
          "name": "value",
          "type": "uint256"
        },
        {
          "name": "data",
          "type": "bytes"
        }
      ],
      "name": "submitTransaction",
      "outputs": [
        {
          "name": "transactionId",
          "type": "uint256"
        }
      ],
      "payable": false,
      "stateMutability": "nonpayable",
      "type": "function",
      "signature": "0xc6427474"
    },
    {
      "constant": false,
      "inputs": [
        {
          "name": "transactionId",
          "type": "uint256"
        }
      ],
      "name": "confirmTransaction",
      "outputs": [],
      "payable": false,
      "stateMutability": "nonpayable",
      "type": "function",
      "signature": "0xc01a8c84"
    },
    {
      "constant": false,
      "inputs": [
        {
          "name": "transactionId",
          "type": "uint256"
        }
      ],
      "name": "revokeConfirmation",
      "outputs": [],
      "payable": false,
      "stateMutability": "nonpayable",
      "type": "function",
      "signature": "0x20ea8d86"
    },
    {
      "constant": false,
      "inputs": [
        {
          "name": "transactionId",
          "type": "uint256"
        }
      ],
      "name": "executeTransaction",
      "outputs": [],
      "payable": false,
      "stateMutability": "nonpayable",
      "type": "function",
      "signature": "0xee22610b"
    },
    {
      "constant": true,
      "inputs": [
        {
          "name": "transactionId",
          "type": "uint256"
        }
      ],
      "name": "isConfirmed",
      "outputs": [
        {
          "name": "",
          "type": "bool"
        }
      ],
      "payable": false,
      "stateMutability": "view",
      "type": "function",
      "signature": "0x784547a7"
    }
  ],
  "bytecode": "0x60806040523480156200001157600080fd5b50604051620010e3380380620010e3833981018060405260408110156200003757600080fd5b8101908080516401000000008111156200005057600080fd5b828101905060208101848111156200006757600080fd5b81518560208202830111640100000000821117156200008557600080fd5b50509291906020018051906020019092919050505081518181811180620000ac5750600081145b80620000b85750600082145b15620000c357600080fd5b60008090505b845181101562000151576001600260008784815181101515620000e857fe5b9060200190602002015173ffffffffffffffffffffffffffffffffffffffff1673ffffffffffffffffffffffffffffffffffffffff16815260200190815260200160002060006101000a81548160ff0219169083151502179055508080600101915050620000c9565b5083600090805190602001906200016a9291906200017c565b50826001819055505050505062000251565b828054828255906000526020600020908101928215620001f8579160200282015b82811115620001f75782518260006101000a81548173ffffffffffffffffffffffffffffffffffffffff021916908373ffffffffffffffffffffffffffffffffffffffff160217905550916020019190600101906200019d565b5b5090506200020791906200020b565b5090565b6200024e91905b808211156200024a57600081816101000a81549073ffffffffffffffffffffffffffffffffffffffff02191690555060010162000212565b5090565b90565b610e8280620002616000396000f3fe6080604052600436106100af576000357c0100000000000000000000000000000000000000000000000000000000900463ffffffff168063025e7c271461010957806320ea8d86146101845780632f54bf6e146101bf5780633411c81c14610228578063784547a71461029b5780639ace38c2146102ee578063b77bf600146103e7578063c01a8c8414610412578063c64274741461044d578063dc8452cd14610553578063ee22610b1461057e575b6000341115610107573373ffffffffffffffffffffffffffffffffffffffff167fe1fffcc4923d04b559f4d29a8bfc6cda04eb5b0d3c460751c2402c5c5cc9109c346040518082815260200191505060405180910390a25b005b34801561011557600080fd5b506101426004803603602081101561012c57600080fd5b81019080803590602001909291905050506105b9565b604051808273ffffffffffffffffffffffffffffffffffffffff1673ffffffffffffffffffffffffffffffffffffffff16815260200191505060405180910390f35b34801561019057600080fd5b506101bd600480360360208110156101a757600080fd5b81019080803590602001909291905050506105f7565b005b3480156101cb57600080fd5b5061020e600480360360208110156101e257600080fd5b81019080803573ffffffffffffffffffffffffffffffffffffffff1690602001909291905050506105fa565b604051808215151515815260200191505060405180910390f35b34801561023457600080fd5b506102816004803603604081101561024b57600080fd5b8101908080359060200190929190803573ffffffffffffffffffffffffffffffffffffffff16906020019092919050505061061a565b604051808215151515815260200191505060405180910390f35b3480156102a757600080fd5b506102d4600480360360208110156102be57600080fd5b8101908080359060200190929190505050610649565b604051808215151515815260200191505060405180910390f35b3480156102fa57600080fd5b506103276004803603602081101561031157600080fd5b810190808035906020019092919050505061072f565b60405180851515151581526020018473ffffffffffffffffffffffffffffffffffffffff1673ffffffffffffffffffffffffffffffffffffffff16815260200183815260200180602001828103825283818151815260200191508051906020019080838360005b838110156103a957808201518184015260208101905061038e565b50505050905090810190601f1680156103d65780820380516001836020036101000a031916815260200191505b509550505050505060405180910390f35b3480156103f357600080fd5b506103fc610824565b6040518082815260200191505060405180910390f35b34801561041e57600080fd5b5061044b6004803603602081101561043557600080fd5b810190808035906020019092919050505061082a565b005b34801561045957600080fd5b5061053d6004803603606081101561047057600080fd5b81019080803573ffffffffffffffffffffffffffffffffffffffff16906020019092919080359060200190929190803590602001906401000000008111156104b757600080fd5b8201836020820111156104c957600080fd5b803590602001918460018302840111640100000000831117156104eb57600080fd5b91908080601f016020809104026020016040519081016040528093929190818152602001838380828437600081840152601f19601f820116905080830192505050505050509192919290505050610a1d565b6040518082815260200191505060405180910390f35b34801561055f57600080fd5b50610568610a94565b6040518082815260200191505060405180910390f35b34801561058a57600080fd5b506105b7600480360360208110156105a157600080fd5b8101908080359060200190929190505050610a9a565b005b6000818154811015156105c857fe5b906000526020600020016000915054906101000a900473ffffffffffffffffffffffffffffffffffffffff1681565b50565b60026020528060005260406000206000915054906101000a900460ff1681565b60056020528160005260406000206020528060005260406000206000915091509054906101000a900460ff1681565b6000806000905060008090505b60008054905081101561072757600560008581526020019081526020016000206000808381548110151561068657fe5b9060005260206000200160009054906101000a900473ffffffffffffffffffffffffffffffffffffffff1673ffffffffffffffffffffffffffffffffffffffff1673ffffffffffffffffffffffffffffffffffffffff16815260200190815260200160002060009054906101000a900460ff1615610705576001820191505b60015482141561071a5760019250505061072a565b8080600101915050610656565b50505b919050565b60046020528060005260406000206000915090508060000160009054906101000a900460ff16908060000160019054906101000a900473ffffffffffffffffffffffffffffffffffffffff1690806001015490806002018054600181600116156101000203166002900480601f01602080910402602001604051908101604052809291908181526020018280546001816001161561010002031660029004801561081a5780601f106107ef5761010080835404028352916020019161081a565b820191906000526020600020905b8154815290600101906020018083116107fd57829003601f168201915b5050505050905084565b60035481565b600260003373ffffffffffffffffffffffffffffffffffffffff1673ffffffffffffffffffffffffffffffffffffffff16815260200190815260200160002060009054906101000a900460ff16151561088257600080fd5b600073ffffffffffffffffffffffffffffffffffffffff166004600083815260200190815260200160002060000160019054906101000a900473ffffffffffffffffffffffffffffffffffffffff1673ffffffffffffffffffffffffffffffffffffffff16141515156108f457600080fd5b600015156005600083815260200190815260200160002060003373ffffffffffffffffffffffffffffffffffffffff1673ffffffffffffffffffffffffffffffffffffffff16815260200190815260200160002060009054906101000a900460ff16151514151561096457600080fd5b60016005600083815260200190815260200160002060003373ffffffffffffffffffffffffffffffffffffffff1673ffffffffffffffffffffffffffffffffffffffff16815260200190815260200160002060006101000a81548160ff021916908315150217905550803373ffffffffffffffffffffffffffffffffffffffff167f4a504a94899432a9846e1aa406dceb1bcfd538bb839071d49d1e5e23f5be30ef60405160405180910390a3610a1a81610a9a565b50565b6000600260003373ffffffffffffffffffffffffffffffffffffffff1673ffffffffffffffffffffffffffffffffffffffff16815260200190815260200160002060009054906101000a900460ff161515610a7757600080fd5b610a82848484610c8b565b9050610a8d8161082a565b9392505050565b60015481565b600015156004600083815260200190815260200160002060000160009054906101000a900460ff161515141515610ad057600080fd5b610ad981610649565b15610c8857600060046000838152602001908152602001600020905060018160000160006101000a81548160ff021916908315150217905550600060608260000160019054906101000a900473ffffffffffffffffffffffffffffffffffffffff1673ffffffffffffffffffffffffffffffffffffffff168360010154846002016040518082805460018160011615610100020316600290048015610bb55780601f10610b93576101008083540402835291820191610bb5565b820191906000526020600020905b815481529060010190602001808311610ba1575b505091505060006040518083038185875af1925050503d8060008114610bf7576040519150601f19603f3d011682016040523d82523d6000602084013e610bfc565b606091505b50915091508115610c3957837f33e13ecb54c3076d8e8bb8c2881800a4d972b792045ffae98fdf46df365fed7560405160405180910390a2610c84565b837f526441bb6c1aba3c9a4a6ca1d6545da9c2333c8c48343ef398eb858d72b7923660405160405180910390a260008360000160006101000a81548160ff0219169083151502179055505b5050505b50565b60006080604051908101604052806000151581526020018573ffffffffffffffffffffffffffffffffffffffff168152602001848152602001838152506004600083815260200190815260200160002060008201518160000160006101000a81548160ff02191690831515021790555060208201518160000160016101000a81548173ffffffffffffffffffffffffffffffffffffffff021916908373ffffffffffffffffffffffffffffffffffffffff160217905550604082015181600101556060820151816002019080519060200190610d68929190610db1565b509050506001600360008282540192505081905550807fc0ba8fe4b176c1714197d43b9cc6bcf797a4a7461c5fe8d0ef6e184ae7601e5160405160405180910390a29392505050565b828054600181600116156101000203166002900490600052602060002090601f016020900481019282601f10610df257805160ff1916838001178555610e20565b82800160010185558215610e20579182015b82811115610e1f578251825591602001919060010190610e04565b5b509050610e2d9190610e31565b5090565b610e5391905b80821115610e4f576000816000905550600101610e37565b5090565b9056fea165627a7a723058202452bf6dfdd4b66a551a4310bb55315985256cc21ab4ecf3def6cd3ae5aebf360029",
  "source": "pragma solidity ^0.5.0;\n\ncontract MultiSignatureWallet {\n\n    struct Transaction {\n      bool executed;\n      address destination;\n      uint value;\n      bytes data;\n    }\n\n    event Deposit(address indexed sender, uint value);\n    event Submission(uint indexed transactionId);\n    event Confirmation(address indexed sender, uint indexed transactionId);\n    event Execution(uint indexed transactionId);\n    event ExecutionFailure(uint indexed transactionId);\n    \n    modifier validRequirement(uint ownerCount, uint _required) {\n        if (   _required > ownerCount || _required == 0 || ownerCount == 0)\n            revert();\n        _;\n    }\n    \n    address[] public owners;\n    uint public required;\n    mapping (address => bool) public isOwner;\n    uint public transactionCount;\n    mapping (uint => Transaction) public transactions;\n    mapping (uint => mapping (address => bool)) public confirmations;\n\n    /// @dev Fallback function allows to deposit ether.\n    function()\n    \texternal\n        payable\n    {\n        if (msg.value > 0) {\n            emit Deposit(msg.sender, msg.value);\n\t}\n    }\n\n    /*\n     * Public functions\n     */\n    /// @dev Contract constructor sets initial owners and required number of confirmations.\n    /// @param _owners List of initial owners.\n    /// @param _required Number of required confirmations.\n     constructor(address[] memory _owners, uint _required) public \n        validRequirement(_owners.length, _required)\n    {\n        for (uint i=0; i<_owners.length; i++) {\n            isOwner[_owners[i]] = true;\n        }\n        owners = _owners;\n        required = _required;\n    }\n\n    /// @dev Allows an owner to submit and confirm a transaction.\n    /// @param destination Transaction target address.\n    /// @param value Transaction ether value.\n    /// @param data Transaction data payload.\n    /// @return Returns transaction ID.\n    function submitTransaction(address destination, uint value, bytes memory data) public returns (uint transactionId) {\n        require(isOwner[msg.sender]);\n        transactionId = addTransaction(destination, value, data);\n        confirmTransaction(transactionId);\n    }\n\n    /// @dev Allows an owner to confirm a transaction.\n    /// @param transactionId Transaction ID.\n    function confirmTransaction(uint transactionId) public {\n        require(isOwner[msg.sender]);\n        require(transactions[transactionId].destination != address(0));\n        require(confirmations[transactionId][msg.sender] == false);\n        confirmations[transactionId][msg.sender] = true;\n        emit Confirmation(msg.sender, transactionId);\n        executeTransaction(transactionId);\n    }\n    \n\n    /// @dev Allows an owner to revoke a confirmation for a transaction.\n    /// @param transactionId Transaction ID.\n    function revokeConfirmation(uint transactionId) public {}\n\n    /// @dev Allows anyone to execute a confirmed transaction.\n    /// @param transactionId Transaction ID.\n    function executeTransaction(uint transactionId)\n        public\n    {\n        require(transactions[transactionId].executed == false);\n        if (isConfirmed(transactionId)) {\n            Transaction storage t = transactions[transactionId];  // using the \"storage\" keyword makes \"t\" a pointer to storage \n            t.executed = true;\n            (bool success, bytes memory returnedData) = t.destination.call.value(t.value)(t.data);\n            if (success)\n                emit Execution(transactionId);\n            else {\n                emit ExecutionFailure(transactionId);\n                t.executed = false;\n            }\n        }\n    }\n\t\t/*\n\t\t * (Possible) Helper Functions\n\t\t */\n    /// @dev Returns the confirmation status of a transaction.\n    /// @param transactionId Transaction ID.\n    /// @return Confirmation status.\n     function isConfirmed(uint transactionId)\n        public\n        view\n        returns (bool)\n    {\n        uint count = 0;\n        for (uint i=0; i<owners.length; i++) {\n            if (confirmations[transactionId][owners[i]])\n                count += 1;\n            if (count == required)\n                return true;\n        }\n    }\n    /// @dev Adds a new transaction to the transaction mapping, if transaction does not exist yet.\n    /// @param destination Transaction target address.\n    /// @param value Transaction ether value.\n    /// @param data Transaction data payload.\n    /// @return Returns transaction ID.\n    function addTransaction(address destination, uint value, bytes memory data) internal returns (uint transactionId) {\n        transactions[transactionId] = Transaction({\n            destination: destination,\n            value: value,\n            data: data,\n            executed: false\n        });\n        transactionCount += 1;\n        emit Submission(transactionId);\n    }\n}",
  "sourcePath": "/home/isaac/Documents/Blockchain/consensys/multisig-wallet-exercise/contracts/MultiSignatureWallet.sol",
  "compiler": {
    "name": "solc",
    "version": "0.5.0+commit.1d4f565a.Emscripten.clang"
  },
  "schemaVersion": "3.0.2",
  "updatedAt": "2019-12-17T05:57:44.390Z",
  "devdoc": {
    "methods": {
      "confirmTransaction(uint256)": {
        "details": "Allows an owner to confirm a transaction.",
        "params": {
          "transactionId": "Transaction ID."
        }
      },
      "constructor": {
        "details": "Contract constructor sets initial owners and required number of confirmations.",
        "params": {
          "_owners": "List of initial owners.",
          "_required": "Number of required confirmations."
        }
      },
      "executeTransaction(uint256)": {
        "details": "Allows anyone to execute a confirmed transaction.",
        "params": {
          "transactionId": "Transaction ID."
        }
      },
      "isConfirmed(uint256)": {
        "details": "Returns the confirmation status of a transaction.",
        "params": {
          "transactionId": "Transaction ID."
        },
        "return": "Confirmation status."
      },
      "revokeConfirmation(uint256)": {
        "details": "Allows an owner to revoke a confirmation for a transaction.",
        "params": {
          "transactionId": "Transaction ID."
        }
      },
      "submitTransaction(address,uint256,bytes)": {
        "details": "Allows an owner to submit and confirm a transaction.",
        "params": {
          "data": "Transaction data payload.",
          "destination": "Transaction target address.",
          "value": "Transaction ether value."
        },
        "return": "Returns transaction ID."
      }
    }
  },
  "userdoc": {
    "methods": {}
  }
}